C51 COMPILER V9.00   MAIN                                                                  03/22/2020 16:33:49 PAGE 1   


C51 COMPILER V9.00, COMPILATION OF MODULE MAIN
OBJECT MODULE PLACED IN .\Objects\main.obj
COMPILER INVOKED BY: D:\Program Files (x86)\keil\C51\BIN\C51.EXE main.c OPTIMIZE(8,SPEED) BROWSE DEBUG OBJECTEXTEND PRIN
                    -T(.\Listings\main.lst) TABS(2) OBJECT(.\Objects\main.obj)

line level    source

   1          #include<eboard.h>
   2          
   3          sbit keyn=P2^0;
   4          sbit keya=P2^2;
   5          sbit keyb=P2^1;
   6          
   7          unsigned char open=1;
   8          
   9          void opendef(unsigned char a)//0:open  1:close
  10          {
  11   1        if(open!=a)
  12   1        {
  13   2          byj(a,35,17);
  14   2          P1=0x00;
  15   2          open=a;
  16   2        }
  17   1      }
  18          void main()
  19          {
  20   1        keyn=0;
  21   1        keya=0;
  22   1        keyb=0;
  23   1        
  24   1        while(1)
  25   1        {
  26   2        
  27   2          if((keyb==1)&&(keya==1)&&(keyn==1))
  28   2          {
  29   3            delay(100);
  30   3            if((keyb==1)&&(keya==1)&&(keyn==1))
  31   3            {
  32   4              while(((keyb==1)&&(keya==1)&&(keyn==1)));
  33   4              opendef(0);
  34   4              delay(500);
  35   4              opendef(1);
  36   4              
  37   4              keyb=0;
  38   4              keya=0;
  39   4              keyn=0;
  40   4            }
  41   3          }
  42   2          
  43   2          if(keyn==1)
  44   2          {
  45   3            delay(50);
  46   3            if(keyn==1)
  47   3            {
  48   4              while(keyn);
  49   4              opendef(0);
  50   4              delay(5000);
  51   4              opendef(1);
  52   4              
  53   4              keyn=0;
  54   4            }
C51 COMPILER V9.00   MAIN                                                                  03/22/2020 16:33:49 PAGE 2   

  55   3          }
  56   2          
  57   2          if((keya==1)&&(keyb==0)&&(keyn==0))///////11111
  58   2          {
  59   3            delay(50);
  60   3            if((keya==1)&&(keyb==0)&&(keyn==0))
  61   3            {
  62   4              while(keya);
  63   4              delay(600);
  64   4              if((keya==1)&&(keyb==1)&&(keyn==0))//////111222
  65   4              {
  66   5                delay(50);
  67   5                if((keya==1)&&(keyb==1)&&(keyn==0))
  68   5                {
  69   6                  while((keya==1)&&(keyb==1));
  70   6                  delay(600);
  71   6                  if((keya==1)&&(keyb==0)&&(keyn==0))///////1111111
  72   6                  {
  73   7                    delay(50);
  74   7                    if((keya==1)&&(keyb==0)&&(keyn==0))
  75   7                    {
  76   8                      while(keya);
  77   8                      delay(600);
  78   8                      if((keya==0)&&(keyb==1)&&(keyn==0))///////22222
  79   8                      {
  80   9                        delay(50);
  81   9                        if((keya==0)&&(keyb==1)&&(keyn==0))
  82   9                        {
  83  10                          while(keyb);
  84  10                          opendef(0);
  85  10                          delay(5000);
  86  10                          opendef(1);
  87  10                          
  88  10                          keya=0;
  89  10                          keyb=0;
  90  10                          keyn=0;
  91  10                        }
  92   9                      }
  93   8                    }
  94   7                  }
  95   6                }
  96   5              }
  97   4            }
  98   3          }
  99   2        }
 100   1      }


MODULE INFORMATION:   STATIC OVERLAYABLE
   CODE SIZE        =    338    ----
   CONSTANT SIZE    =   ----    ----
   XDATA SIZE       =   ----    ----
   PDATA SIZE       =   ----    ----
   DATA SIZE        =      1       1
   IDATA SIZE       =   ----    ----
   BIT SIZE         =   ----    ----
END OF MODULE INFORMATION.


C51 COMPILATION COMPLETE.  0 WARNING(S),  0 ERROR(S)
