C51 COMPILER V9.00   神经                                                                  11/18/2017 15:16:46 PAGE 1   


C51 COMPILER V9.00, COMPILATION OF MODULE 神经
OBJECT MODULE PLACED IN 神经.OBJ
COMPILER INVOKED BY: C:\Keil\C51\BIN\C51.EXE 神经.c BROWSE DEBUG OBJECTEXTEND

line level    source

   1          #include<reg52.h>
   2          
   3          sbit a=P2^0;       //器官 头               
   4          sbit b=P2^1;       //器官 尾
   5          sbit aj=P2^2;           //按键                     低电平触发
   6          
   7          sbit led=P1^0;
   8          sbit led1=P1^1;
   9          sbit led2=P1^2;
  10          sbit led3=P1^3;
  11          sbit led4=P1^4;
  12          sbit led5=P1^5;
  13          sbit led6=P1^6;
  14          sbit led7=P1^7;
  15          
  16          int x=0;
  17                                           
  18          void delay(unsigned int i)
  19          {
  20   1              unsigned int j;
  21   1              for(;i>0;i--)
  22   1                      for(j=0;j<125;j++)
  23   1                      {
  24   2                              ;
  25   2                      }
  26   1      }
  27          
  28          void main()
  29          {
  30   1              aj=1;
  31   1              while(1)                        //         循环
  32   1              {
  33   2                      if(aj==0)
  34   2                      {
  35   3                              delay(25);
  36   3                              if(aj==0)
  37   3                              {
  38   4                                      a=0;
  39   4                                      delay(1000);
  40   4                                      a=1;
  41   4                                      delay(800);
  42   4      
  43   4                                      led=0;                  //              输入低电平
  44   4                                      delay(700);
  45   4                                      led=1;
  46   4      
  47   4                                      led1=0;
  48   4                                      delay(700);
  49   4                                      led1=1;
  50   4      
  51   4      
  52   4                                      led2=0;
  53   4                                      delay(700);
  54   4                                      led2=1;
  55   4      
C51 COMPILER V9.00   神经                                                                  11/18/2017 15:16:46 PAGE 2   

  56   4      
  57   4                                      led3=0;
  58   4                              delay(700);
  59   4                                      led3=1;
  60   4      
  61   4      
  62   4                                      led4=0;
  63   4                              delay(700);
  64   4                                      led4=1;
  65   4      
  66   4                                      led5=0;
  67   4                              delay(700);
  68   4                                      led5=1;
  69   4      
  70   4      
  71   4                                      led6=0;
  72   4                              delay(700);
  73   4                                      led6=1;
  74   4      
  75   4                                      led7=0;
  76   4                                      delay(700);
  77   4                                      led7=1;
  78   4      
  79   4                                      delay(500);
  80   4                                      b=0;
  81   4                                      delay(1000);
  82   4                                      b=1;
  83   4                                      aj=1;
  84   4                              }
  85   3                      }
  86   2              }
  87   1      }


MODULE INFORMATION:   STATIC OVERLAYABLE
   CODE SIZE        =    147    ----
   CONSTANT SIZE    =   ----    ----
   XDATA SIZE       =   ----    ----
   PDATA SIZE       =   ----    ----
   DATA SIZE        =      2    ----
   IDATA SIZE       =   ----    ----
   BIT SIZE         =   ----    ----
END OF MODULE INFORMATION.


C51 COMPILATION COMPLETE.  0 WARNING(S),  0 ERROR(S)
