C51 COMPILER V9.00   AD                                                                    08/08/2017 00:11:42 PAGE 1   


C51 COMPILER V9.00, COMPILATION OF MODULE AD
OBJECT MODULE PLACED IN ad.OBJ
COMPILER INVOKED BY: C:\Keil\C51\BIN\C51.EXE ad.c BROWSE DEBUG OBJECTEXTEND

line level    source

   1          #include<reg52.h>
   2          
   3          sbit up=P1^0;
   4          sbit up_led=P1^1;
   5          sbit down=P1^2;
   6          sbit down_led=P1^3;
   7          sbit up_sm=P1^4;
   8          sbit down_sm=P1^5;
   9          
  10          sbit up_aj=P2^0;
  11          sbit down_aj=P2^1;
  12          
  13          void ys(int b)
  14          {
  15   1              int i,x,y;
  16   1              i=b;
  17   1              for(x=i;x>0;x--)
  18   1                      for(y=114;y>0;y--);     
  19   1      }
  20          
  21          void main()
  22          {
  23   1              
  24   1              up_sm=1;
  25   1              down_sm=1;
  26   1              up=1;
  27   1              up_led=0;
  28   1              down=1;
  29   1              down_led=0;
  30   1              up_aj=1;
  31   1              down_aj=1;
  32   1      
  33   1              while(1)
  34   1              {
  35   2                      if(up_aj==0)
  36   2                      {
  37   3                              ys(50);
  38   3                              if(up_aj==0)
  39   3                              {       
  40   4                                      while(!up_aj);
  41   4                                      down=1;
  42   4                                      down_sm=1;
  43   4                                      down_led=0;
  44   4      
  45   4                                      ys(10);
  46   4                                      up_sm=0;
  47   4                                      ys(10);
  48   4                                      up=0;
  49   4                                      up_led=1;
  50   4      
  51   4                                      up_aj=1;
  52   4                              }
  53   3                      }
  54   2                      
  55   2                      if(down_aj==0)
C51 COMPILER V9.00   AD                                                                    08/08/2017 00:11:42 PAGE 2   

  56   2                      {
  57   3                              ys(50);
  58   3                              if(down_aj==0)
  59   3                              {       
  60   4                                      while(!down_aj);
  61   4                                      up=1;
  62   4                                      up_sm=1;
  63   4                                      up_led=0;
  64   4      
  65   4                                      ys(10);
  66   4                                      down_sm=0;
  67   4                                      ys(10);
  68   4                                      down=0;
  69   4                                      down_led=1;
  70   4      
  71   4                                      down_aj=1;
  72   4                              }
  73   3                      }               
  74   2              }
  75   1      }


MODULE INFORMATION:   STATIC OVERLAYABLE
   CODE SIZE        =    126    ----
   CONSTANT SIZE    =   ----    ----
   XDATA SIZE       =   ----    ----
   PDATA SIZE       =   ----    ----
   DATA SIZE        =   ----    ----
   IDATA SIZE       =   ----    ----
   BIT SIZE         =   ----    ----
END OF MODULE INFORMATION.


C51 COMPILATION COMPLETE.  0 WARNING(S),  0 ERROR(S)
